{"abi":[{"type":"function","name":"createWeatherNFT","inputs":[{"name":"name","type":"string","internalType":"string"},{"name":"symbol","type":"string","internalType":"string"},{"name":"recipient","type":"address","internalType":"address"},{"name":"uri","type":"string","internalType":"string"},{"name":"temperature","type":"string","internalType":"string"},{"name":"humidity","type":"string","internalType":"string"},{"name":"windSpeed","type":"string","internalType":"string"},{"name":"conditionImage","type":"string","internalType":"string"}],"outputs":[{"name":"","type":"address","internalType":"address"}],"stateMutability":"nonpayable"},{"type":"function","name":"deployedNFTs","inputs":[{"name":"","type":"uint256","internalType":"uint256"}],"outputs":[{"name":"contractAddress","type":"address","internalType":"address"},{"name":"name","type":"string","internalType":"string"},{"name":"symbol","type":"string","internalType":"string"}],"stateMutability":"view"},{"type":"event","name":"NFTUpdated","inputs":[{"name":"nftContract","type":"address","indexed":true,"internalType":"address"},{"name":"updatedData","type":"tuple","indexed":false,"internalType":"struct NFT.WeatherData","components":[{"name":"temperature","type":"string","internalType":"string"},{"name":"humidity","type":"string","internalType":"string"},{"name":"windSpeed","type":"string","internalType":"string"},{"name":"conditionImage","type":"string","internalType":"string"},{"name":"timestamp","type":"uint256","internalType":"uint256"}]}],"anonymous":false},{"type":"event","name":"WeatherNFTCreated","inputs":[{"name":"creator","type":"address","indexed":true,"internalType":"address"},{"name":"nftContract","type":"address","indexed":false,"internalType":"address"}],"anonymous":false}],"bytecode":{"object":"0x6080604052348015600f57600080fd5b506129b78061001f6000396000f3fe608060405234801561001057600080fd5b50600436106100365760003560e01c806313df82231461003b578063730860e414610066575b600080fd5b61004e61004936600461033c565b610091565b60405161005d9392919061039b565b60405180910390f35b61007961007436600461049a565b6101e1565b6040516001600160a01b03909116815260200161005d565b600081815481106100a157600080fd5b6000918252602090912060039091020180546001820180546001600160a01b039092169350906100d0906105c6565b80601f01602080910402602001604051908101604052809291908181526020018280546100fc906105c6565b80156101495780601f1061011e57610100808354040283529160200191610149565b820191906000526020600020905b81548152906001019060200180831161012c57829003601f168201915b50505050509080600201805461015e906105c6565b80601f016020809104026020016040519081016040528092919081815260200182805461018a906105c6565b80156101d75780601f106101ac576101008083540402835291602001916101d7565b820191906000526020600020905b8154815290600101906020018083116101ba57829003601f168201915b5050505050905083565b60008089898989898989896040516101f89061032f565b610209989796959493929190610600565b604051809103906000f080158015610225573d6000803e3d6000fd5b50604080516060810182526001600160a01b038381168252602082018e81529282018d90526000805460018101825590805282517f290decd9548b62a8d60345a988386fc84ba6bc95484008f6362f93160ef3e563600390920291820180546001600160a01b031916919093161782559251939450909283927f290decd9548b62a8d60345a988386fc84ba6bc95484008f6362f93160ef3e56401906102cb90826106fb565b50604082015160028201906102e090826106fb565b50506040516001600160a01b03841681523391507f494795af8025b49f20ba388b64468afffdfc1f9530002c24ca4bc9c6ca9137fc9060200160405180910390a2509998505050505050505050565b6121c6806107bc83390190565b60006020828403121561034e57600080fd5b5035919050565b6000815180845260005b8181101561037b5760208185018101518683018201520161035f565b506000602082860101526020601f19601f83011685010191505092915050565b6001600160a01b03841681526060602082018190526000906103bf90830185610355565b82810360408401526103d18185610355565b9695505050505050565b634e487b7160e01b600052604160045260246000fd5b600082601f83011261040257600080fd5b813567ffffffffffffffff8082111561041d5761041d6103db565b604051601f8301601f19908116603f01168101908282118183101715610445576104456103db565b8160405283815286602085880101111561045e57600080fd5b836020870160208301376000602085830101528094505050505092915050565b80356001600160a01b038116811461049557600080fd5b919050565b600080600080600080600080610100898b0312156104b757600080fd5b883567ffffffffffffffff808211156104cf57600080fd5b6104db8c838d016103f1565b995060208b01359150808211156104f157600080fd5b6104fd8c838d016103f1565b985061050b60408c0161047e565b975060608b013591508082111561052157600080fd5b61052d8c838d016103f1565b965060808b013591508082111561054357600080fd5b61054f8c838d016103f1565b955060a08b013591508082111561056557600080fd5b6105718c838d016103f1565b945060c08b013591508082111561058757600080fd5b6105938c838d016103f1565b935060e08b01359150808211156105a957600080fd5b506105b68b828c016103f1565b9150509295985092959890939650565b600181811c908216806105da57607f821691505b6020821081036105fa57634e487b7160e01b600052602260045260246000fd5b50919050565b60006101008083526106148184018c610355565b90508281036020840152610628818b610355565b6001600160a01b038a1660408501528381036060850152905061064b8189610355565b9050828103608084015261065f8188610355565b905082810360a08401526106738187610355565b905082810360c08401526106878186610355565b905082810360e084015261069b8185610355565b9b9a5050505050505050505050565b601f8211156106f6576000816000526020600020601f850160051c810160208610156106d35750805b601f850160051c820191505b818110156106f2578281556001016106df565b5050505b505050565b815167ffffffffffffffff811115610715576107156103db565b6107298161072384546105c6565b846106aa565b602080601f83116001811461075e57600084156107465750858301515b600019600386901b1c1916600185901b1785556106f2565b600085815260208120601f198616915b8281101561078d5788860151825594840194600190910190840161076e565b50858210156107ab5787850151600019600388901b60f8161c191681555b5050505050600190811b0190555056fe608060405234801561001057600080fd5b506040516121c63803806121c683398101604081905261002f916105f3565b8787600061003d83826107a8565b50600161004a82826107a8565b505060006007819055600d80546001600160a01b0319166001600160a01b038a1617905561007a91508790610115565b6007546100879086610183565b6040805160a08101825285815260208101859052908101839052606081018290524260808201526008806100bb87826107a8565b50602082015160018201906100d090826107a8565b50604082015160028201906100e590826107a8565b50606082015160038201906100fa90826107a8565b50608082015181600401559050505050505050505050610867565b6001600160a01b03821661014457604051633250574960e11b8152600060048201526024015b60405180910390fd5b60006101518383836101d3565b90506001600160a01b0381161561017e576040516339e3563760e11b81526000600482015260240161013b565b505050565b600082815260066020526040902061019b82826107a8565b506040518281527ff8e1a15aba9398e019f0b49df1a4fde98ee17ae345cb5f6b5e2c27f5033e8ce79060200160405180910390a15050565b6000828152600260205260408120546001600160a01b0390811690831615610200576102008184866102cb565b6001600160a01b0381161561023d5761021c600085818061032f565b6001600160a01b038116600090815260036020526040902080546000190190555b6001600160a01b0385161561026c576001600160a01b0385166000908152600360205260409020805460010190555b60008481526002602052604080822080546001600160a01b0319166001600160a01b0389811691821790925591518793918516917fddf252ad1be2c89b69c2b068fc378daa952ba7f163c4a11628f55a4df523b3ef91a4949350505050565b6102d6838383610454565b61017e576001600160a01b03831661030457604051637e27328960e01b81526004810182905260240161013b565b60405163177e802f60e01b81526001600160a01b03831660048201526024810182905260440161013b565b808061034357506001600160a01b03821615155b15610424576000610353846104da565b90506001600160a01b0383161580159061037f5750826001600160a01b0316816001600160a01b031614155b80156103b157506001600160a01b0380821660009081526005602090815260408083209387168352929052205460ff16155b156103da5760405163a9fbf51f60e01b81526001600160a01b038416600482015260240161013b565b81156104225783856001600160a01b0316826001600160a01b03167f8c5be1e5ebec7d5bd14f71427d1e84f3dd0314c0f7b2291e5b200ac8c7c3b92560405160405180910390a45b505b5050600090815260046020526040902080546001600160a01b0319166001600160a01b0392909216919091179055565b60006001600160a01b038316158015906104d25750826001600160a01b0316846001600160a01b031614806104ae57506001600160a01b0380851660009081526005602090815260408083209387168352929052205460ff165b806104d257506000828152600460205260409020546001600160a01b038481169116145b949350505050565b6000818152600260205260408120546001600160a01b03168061051357604051637e27328960e01b81526004810184905260240161013b565b92915050565b634e487b7160e01b600052604160045260246000fd5b600082601f83011261054057600080fd5b81516001600160401b038082111561055a5761055a610519565b604051601f8301601f19908116603f0116810190828211818310171561058257610582610519565b816040528381526020925086602085880101111561059f57600080fd5b600091505b838210156105c157858201830151818301840152908201906105a4565b6000602085830101528094505050505092915050565b80516001600160a01b03811681146105ee57600080fd5b919050565b600080600080600080600080610100898b03121561061057600080fd5b88516001600160401b038082111561062757600080fd5b6106338c838d0161052f565b995060208b015191508082111561064957600080fd5b6106558c838d0161052f565b985061066360408c016105d7565b975060608b015191508082111561067957600080fd5b6106858c838d0161052f565b965060808b015191508082111561069b57600080fd5b6106a78c838d0161052f565b955060a08b01519150808211156106bd57600080fd5b6106c98c838d0161052f565b945060c08b01519150808211156106df57600080fd5b6106eb8c838d0161052f565b935060e08b015191508082111561070157600080fd5b5061070e8b828c0161052f565b9150509295985092959890939650565b600181811c9082168061073257607f821691505b60208210810361075257634e487b7160e01b600052602260045260246000fd5b50919050565b601f82111561017e576000816000526020600020601f850160051c810160208610156107815750805b601f850160051c820191505b818110156107a05782815560010161078d565b505050505050565b81516001600160401b038111156107c1576107c1610519565b6107d5816107cf845461071e565b84610758565b602080601f83116001811461080a57600084156107f25750858301515b600019600386901b1c1916600185901b1785556107a0565b600085815260208120601f198616915b828110156108395788860151825594840194600190910190840161081a565b50858210156108575787850151600019600388901b60f8161c191681555b5050505050600190811b01905550565b611950806108766000396000f3fe608060405234801561001057600080fd5b50600436106101165760003560e01c8063686b6159116100a2578063a22cb46511610071578063a22cb46514610244578063ad3851ac14610257578063b88d4fde1461026a578063c87b56dd1461027d578063e985e9c51461029057600080fd5b8063686b6159146101fb57806370a082311461021457806378ed59b51461022757806395d89b411461023c57600080fd5b8063095ea7b3116100e9578063095ea7b31461019657806317d70f7c146101ab57806323b872dd146101c257806342842e0e146101d55780636352211e146101e857600080fd5b806301ffc9a71461011b57806302d05d3f1461014357806306fdde031461016e578063081812fc14610183575b600080fd5b61012e6101293660046112f5565b6102a3565b60405190151581526020015b60405180910390f35b600d54610156906001600160a01b031681565b6040516001600160a01b03909116815260200161013a565b6101766102ce565b60405161013a9190611362565b610156610191366004611375565b610360565b6101a96101a43660046113aa565b610389565b005b6101b460075481565b60405190815260200161013a565b6101a96101d03660046113d4565b610398565b6101a96101e33660046113d4565b610428565b6101566101f6366004611375565b610448565b610203610453565b60405161013a959493929190611410565b6101b4610222366004611470565b610695565b61022f6106dd565b60405161013a919061148b565b610176610973565b6101a9610252366004611517565b610982565b6101a96102653660046115ff565b61098d565b6101a96102783660046116ac565b610a7f565b61017661028b366004611375565b610a97565b61012e61029e36600461171c565b610ba8565b60006001600160e01b03198216632483248360e11b14806102c857506102c882610bd6565b92915050565b6060600080546102dd9061174f565b80601f01602080910402602001604051908101604052809291908181526020018280546103099061174f565b80156103565780601f1061032b57610100808354040283529160200191610356565b820191906000526020600020905b81548152906001019060200180831161033957829003601f168201915b5050505050905090565b600061036b82610c26565b506000828152600460205260409020546001600160a01b03166102c8565b610394828233610c5f565b5050565b6001600160a01b0382166103c757604051633250574960e11b8152600060048201526024015b60405180910390fd5b60006103d4838333610c6c565b9050836001600160a01b0316816001600160a01b031614610422576040516364283d7b60e01b81526001600160a01b03808616600483015260248201849052821660448201526064016103be565b50505050565b61044383838360405180602001604052806000815250610a7f565b505050565b60006102c882610c26565b6008805481906104629061174f565b80601f016020809104026020016040519081016040528092919081815260200182805461048e9061174f565b80156104db5780601f106104b0576101008083540402835291602001916104db565b820191906000526020600020905b8154815290600101906020018083116104be57829003601f168201915b5050505050908060010180546104f09061174f565b80601f016020809104026020016040519081016040528092919081815260200182805461051c9061174f565b80156105695780601f1061053e57610100808354040283529160200191610569565b820191906000526020600020905b81548152906001019060200180831161054c57829003601f168201915b50505050509080600201805461057e9061174f565b80601f01602080910402602001604051908101604052809291908181526020018280546105aa9061174f565b80156105f75780601f106105cc576101008083540402835291602001916105f7565b820191906000526020600020905b8154815290600101906020018083116105da57829003601f168201915b50505050509080600301805461060c9061174f565b80601f01602080910402602001604051908101604052809291908181526020018280546106389061174f565b80156106855780601f1061065a57610100808354040283529160200191610685565b820191906000526020600020905b81548152906001019060200180831161066857829003601f168201915b5050505050908060040154905085565b60006001600160a01b0382166106c1576040516322718ad960e21b8152600060048201526024016103be565b506001600160a01b031660009081526003602052604090205490565b61070f6040518060a0016040528060608152602001606081526020016060815260200160608152602001600081525090565b60086040518060a001604052908160008201805461072c9061174f565b80601f01602080910402602001604051908101604052809291908181526020018280546107589061174f565b80156107a55780601f1061077a576101008083540402835291602001916107a5565b820191906000526020600020905b81548152906001019060200180831161078857829003601f168201915b505050505081526020016001820180546107be9061174f565b80601f01602080910402602001604051908101604052809291908181526020018280546107ea9061174f565b80156108375780601f1061080c57610100808354040283529160200191610837565b820191906000526020600020905b81548152906001019060200180831161081a57829003601f168201915b505050505081526020016002820180546108509061174f565b80601f016020809104026020016040519081016040528092919081815260200182805461087c9061174f565b80156108c95780601f1061089e576101008083540402835291602001916108c9565b820191906000526020600020905b8154815290600101906020018083116108ac57829003601f168201915b505050505081526020016003820180546108e29061174f565b80601f016020809104026020016040519081016040528092919081815260200182805461090e9061174f565b801561095b5780601f106109305761010080835404028352916020019161095b565b820191906000526020600020905b81548152906001019060200180831161093e57829003601f168201915b50505050508152602001600482015481525050905090565b6060600180546102dd9061174f565b610394338383610d65565b600d546001600160a01b031633146109f85760405162461bcd60e51b815260206004820152602860248201527f4f6e6c79207468652063726561746f722063616e207570646174652077656174604482015267686572206461746160c01b60648201526084016103be565b6040805160a0810182528581526020810185905290810183905260608101829052426080820152600880610a2c87826117d1565b5060208201516001820190610a4190826117d1565b5060408201516002820190610a5690826117d1565b5060608201516003820190610a6b90826117d1565b506080820151816004015590505050505050565b610a8a848484610398565b6104223385858585610e04565b6060610aa282610c26565b5060008281526006602052604081208054610abc9061174f565b80601f0160208091040260200160405190810160405280929190818152602001828054610ae89061174f565b8015610b355780601f10610b0a57610100808354040283529160200191610b35565b820191906000526020600020905b815481529060010190602001808311610b1857829003601f168201915b505050505090506000610b5360408051602081019091526000815290565b90508051600003610b65575092915050565b815115610b97578082604051602001610b7f929190611891565b60405160208183030381529060405292505050919050565b610ba084610f2f565b949350505050565b6001600160a01b03918216600090815260056020908152604080832093909416825291909152205460ff1690565b60006001600160e01b031982166380ac58cd60e01b1480610c0757506001600160e01b03198216635b5e139f60e01b145b806102c857506301ffc9a760e01b6001600160e01b03198316146102c8565b6000818152600260205260408120546001600160a01b0316806102c857604051637e27328960e01b8152600481018490526024016103be565b6104438383836001610fa4565b6000828152600260205260408120546001600160a01b0390811690831615610c9957610c998184866110aa565b6001600160a01b03811615610cd757610cb6600085600080610fa4565b6001600160a01b038116600090815260036020526040902080546000190190555b6001600160a01b03851615610d06576001600160a01b0385166000908152600360205260409020805460010190555b60008481526002602052604080822080546001600160a01b0319166001600160a01b0389811691821790925591518793918516917fddf252ad1be2c89b69c2b068fc378daa952ba7f163c4a11628f55a4df523b3ef91a4949350505050565b6001600160a01b038216610d9757604051630b61174360e31b81526001600160a01b03831660048201526024016103be565b6001600160a01b03838116600081815260056020908152604080832094871680845294825291829020805460ff191686151590811790915591519182527f17307eab39ab6107e8899845ad3d59bd9653f200f220920489ca2b5937696c31910160405180910390a3505050565b6001600160a01b0383163b15610f2857604051630a85bd0160e11b81526001600160a01b0384169063150b7a0290610e469088908890879087906004016118c0565b6020604051808303816000875af1925050508015610e81575060408051601f3d908101601f19168201909252610e7e918101906118fd565b60015b610eea573d808015610eaf576040519150601f19603f3d011682016040523d82523d6000602084013e610eb4565b606091505b508051600003610ee257604051633250574960e11b81526001600160a01b03851660048201526024016103be565b805181602001fd5b6001600160e01b03198116630a85bd0160e11b14610f2657604051633250574960e11b81526001600160a01b03851660048201526024016103be565b505b5050505050565b6060610f3a82610c26565b506000610f5260408051602081019091526000815290565b90506000815111610f725760405180602001604052806000815250610f9d565b80610f7c8461110e565b604051602001610f8d929190611891565b6040516020818303038152906040525b9392505050565b8080610fb857506001600160a01b03821615155b1561107a576000610fc884610c26565b90506001600160a01b03831615801590610ff45750826001600160a01b0316816001600160a01b031614155b801561100757506110058184610ba8565b155b156110305760405163a9fbf51f60e01b81526001600160a01b03841660048201526024016103be565b81156110785783856001600160a01b0316826001600160a01b03167f8c5be1e5ebec7d5bd14f71427d1e84f3dd0314c0f7b2291e5b200ac8c7c3b92560405160405180910390a45b505b5050600090815260046020526040902080546001600160a01b0319166001600160a01b0392909216919091179055565b6110b58383836111a1565b610443576001600160a01b0383166110e357604051637e27328960e01b8152600481018290526024016103be565b60405163177e802f60e01b81526001600160a01b0383166004820152602481018290526044016103be565b6060600061111b83611204565b600101905060008167ffffffffffffffff81111561113b5761113b611553565b6040519080825280601f01601f191660200182016040528015611165576020820181803683370190505b5090508181016020015b600019016f181899199a1a9b1b9c1cb0b131b232b360811b600a86061a8153600a850494508461116f57509392505050565b60006001600160a01b03831615801590610ba05750826001600160a01b0316846001600160a01b031614806111db57506111db8484610ba8565b80610ba05750506000908152600460205260409020546001600160a01b03908116911614919050565b60008072184f03e93ff9f4daa797ed6e38ed64bf6a1f0160401b83106112435772184f03e93ff9f4daa797ed6e38ed64bf6a1f0160401b830492506040015b6d04ee2d6d415b85acef8100000000831061126f576d04ee2d6d415b85acef8100000000830492506020015b662386f26fc10000831061128d57662386f26fc10000830492506010015b6305f5e10083106112a5576305f5e100830492506008015b61271083106112b957612710830492506004015b606483106112cb576064830492506002015b600a83106102c85760010192915050565b6001600160e01b0319811681146112f257600080fd5b50565b60006020828403121561130757600080fd5b8135610f9d816112dc565b60005b8381101561132d578181015183820152602001611315565b50506000910152565b6000815180845261134e816020860160208601611312565b601f01601f19169290920160200192915050565b602081526000610f9d6020830184611336565b60006020828403121561138757600080fd5b5035919050565b80356001600160a01b03811681146113a557600080fd5b919050565b600080604083850312156113bd57600080fd5b6113c68361138e565b946020939093013593505050565b6000806000606084860312156113e957600080fd5b6113f28461138e565b92506114006020850161138e565b9150604084013590509250925092565b60a08152600061142360a0830188611336565b82810360208401526114358188611336565b905082810360408401526114498187611336565b9050828103606084015261145d8186611336565b9150508260808301529695505050505050565b60006020828403121561148257600080fd5b610f9d8261138e565b602081526000825160a060208401526114a760c0840182611336565b90506020840151601f19808584030160408601526114c58383611336565b925060408601519150808584030160608601526114e28383611336565b92506060860151915080858403016080860152506115008282611336565b915050608084015160a08401528091505092915050565b6000806040838503121561152a57600080fd5b6115338361138e565b91506020830135801515811461154857600080fd5b809150509250929050565b634e487b7160e01b600052604160045260246000fd5b600067ffffffffffffffff8084111561158457611584611553565b604051601f8501601f19908116603f011681019082821181831017156115ac576115ac611553565b816040528093508581528686860111156115c557600080fd5b858560208301376000602087830101525050509392505050565b600082601f8301126115f057600080fd5b610f9d83833560208501611569565b6000806000806080858703121561161557600080fd5b843567ffffffffffffffff8082111561162d57600080fd5b611639888389016115df565b9550602087013591508082111561164f57600080fd5b61165b888389016115df565b9450604087013591508082111561167157600080fd5b61167d888389016115df565b9350606087013591508082111561169357600080fd5b506116a0878288016115df565b91505092959194509250565b600080600080608085870312156116c257600080fd5b6116cb8561138e565b93506116d96020860161138e565b925060408501359150606085013567ffffffffffffffff8111156116fc57600080fd5b8501601f8101871361170d57600080fd5b6116a087823560208401611569565b6000806040838503121561172f57600080fd5b6117388361138e565b91506117466020840161138e565b90509250929050565b600181811c9082168061176357607f821691505b60208210810361178357634e487b7160e01b600052602260045260246000fd5b50919050565b601f821115610443576000816000526020600020601f850160051c810160208610156117b25750805b601f850160051c820191505b81811015610f26578281556001016117be565b815167ffffffffffffffff8111156117eb576117eb611553565b6117ff816117f9845461174f565b84611789565b602080601f831160018114611834576000841561181c5750858301515b600019600386901b1c1916600185901b178555610f26565b600085815260208120601f198616915b8281101561186357888601518255948401946001909101908401611844565b50858210156118815787850151600019600388901b60f8161c191681555b5050505050600190811b01905550565b600083516118a3818460208801611312565b8351908301906118b7818360208801611312565b01949350505050565b6001600160a01b03858116825284166020820152604081018390526080606082018190526000906118f390830184611336565b9695505050505050565b60006020828403121561190f57600080fd5b8151610f9d816112dc56fea26469706673582212207789bc9f8bf86b5712d91a48f9c0db575cff08ed731476aecbd1e54d8c611fab64736f6c63430008190033a2646970667358221220e5342f339d80dba433aaa77aa43c45abe7fd8bf1380d5c79c964b65dcfdb937364736f6c63430008190033","linkReferences":{}},"methodIdentifiers":{"createWeatherNFT(string,string,address,string,string,string,string,string)":"730860e4","deployedNFTs(uint256)":"13df8223"},"id":19}